:100000000C9467000C948F000C948F000C948F005C
:100010000C948F000C948F000C948F000C948F0024
:100020000C948F000C948F000C948F000C948F0014
:100030000C948F000C948F000C948F000C948F0004
:100040000C948D050C948F000C94FD050C94D70531
:100050000C948F000C948F000C948F000C948F00E4
:100060000C948F000C948F0045076A079207A30732
:10007000B4077B07CA07DD07EA0700000000240079
:1000800027002A0000000000250028002B0004049F
:100090000404040404040202020202020303030330
:1000A000030301020408102040800102040810200C
:1000B00001020408102000000008000201000003F3
:1000C000040700000000000000002F061B08112498
:1000D0001FBECFEFD8E0DEBFCDBF12E0A0E0B1E0A1
:1000E000E0E7F7E102C005900D92AC32B107D9F715
:1000F00022E0ACE2B2E001C01D92A53EB207E1F7FA
:1001000010E0C6E6D0E004C02197FE010E949809E5
:10011000C536D107C9F70E9467060C94AB0B0C9447
:10012000000090E0FC01EA54FF4F2491FC01EE55E1
:10013000FF4F3491FC01E257FF4FE491EE2309F4A5
:100140003CC0222339F1233091F038F42130A9F05A
:10015000223001F584B58F7D12C0273091F0283010
:10016000A1F02430B9F4809180008F7D03C080918C
:1001700080008F77809380000DC084B58F7784BD19
:1001800009C08091B0008F7703C08091B0008F7D4F
:100190008093B000F0E0EE0FFF1FEC57FF4FA591EA
:1001A000B4919FB7F894611104C08C9130953823B5
:1001B00002C0EC913E2B3C939FBF08953FB7F8944B
:1001C00080912E0290912F02A0913002B0913102C5
:1001D00026B5A89B05C02F3F19F00196A11DB11DA2
:1001E0003FBFBA2FA92F982F8827820F911DA11DDD
:1001F000B11DBC01CD0142E0660F771F881F991F1A
:100200004A95D1F708958F929F92AF92BF92CF9265
:10021000DF92EF92FF926B017C010E94DE004B01A6
:100220005C01C114D104E104F104F1F00E94DE008C
:10023000DC01CB0188199909AA09BB09883E9340C2
:10024000A105B10570F321E0C21AD108E108F10857
:1002500088EE880E83E0981EA11CB11CC114D10445
:10026000E104F10419F7DDCFFF90EF90DF90CF901C
:10027000BF90AF909F908F9008950895CF92DF9296
:10028000EF92FF920F931F93CF93DF936C017A014C
:100290008B01C0E0D0E0CE15DF0581F0D8016D9173
:1002A0008D01D601ED91FC910190F081E02DC60108
:1002B0000995892B11F02196EECF7E01C701DF91C0
:1002C000CF911F910F91FF90EF90DF90CF90089505
:1002D00080E090E00895FC01538D448D252F30E09F
:1002E000842F90E0821B930B541710F0CF96089543
:1002F00001970895FC01918D828D981761F0828D90
:10030000DF01A80FB11D5D968C91928D9F5F9F7349
:10031000928F90E008958FEF9FEF08952FB7F89494
:100320008091340290913502A0913602B09137024B
:100330002FBF8093400290934102A0934202B0935A
:10034000430288E392E00E947A0197FF26C02FB70C
:10035000F8948091340290913502A0913602B091C8
:1003600037022FBF409140025091410260914202FA
:1003700070914302841B950BA60BB70B40913C0276
:1003800050913D0260913E0270913F0284179507A3
:10039000A607B707B0F28FEF9FEF0895FC01918D8C
:1003A000828D981731F0828DE80FF11D858D90E0D8
:1003B00008958FEF9FEF0895FC01918D228D892F75
:1003C00090E0805C9F4F821B91098F73992708955D
:1003D00088E392E00E94DC0121E0892B09F420E00F
:1003E000822F0895FC01848DDF01A80FB11DA35A4F
:1003F000BF4F2C91848D90E001968F739927848F45
:10040000A689B7892C93A089B1898C918370806467
:100410008C93938D848D981306C00288F389E02D08
:1004200080818F7D80830895EF92FF920F931F93B9
:10043000CF93DF93EC0181E0888F9B8D8C8D981397
:1004400005C0E889F989808185FD26C0F62E0B8DCF
:1004500010E00F5F1F4F0F731127E02E8C8DE812F5
:100460000CC00FB607FCFACFE889F989808185FFB7
:10047000F5CFCE010E94F201F1CF8B8DFE01E80F86
:10048000F11DE35AFF4FF0829FB7F8940B8FEA8972
:10049000FB89808180620AC09FB7F894EE89FF894A
:1004A0006083E889F98980818370806480839FBF3D
:1004B00081E090E0DF91CF911F910F91FF90EF903D
:1004C0000895CF93DF93EC01888D8823C9F0EA89E2
:1004D000FB89808185FD05C0A889B9898C9186FD3D
:1004E0000FC00FB607FCF5CF808185FFF2CFA8893A
:1004F000B9898C9185FFEDCFCE010E94F201E7CF43
:10050000DF91CF91089580E090E0892B29F00E943F
:10051000E80181110C9400000895BF92CF92DF9200
:10052000EF92FF920F931F93CF93DF938B01C0E065
:10053000D0E06C01990FEE08FF08C017D107F4F462
:1005400095E0B92E61E08B2D0E949100B3948BE071
:10055000B812F8CFC701B6010E94030185E0B82E9A
:1005600060E08B2D0E949100B3948BE0B812F8CF1D
:10057000C701B6010E9403012196DFCFDF91CF9121
:100580001F910F91FF90EF90DF90CF90BF90089553
:10059000CF93DF93009779F0FC0101900020E9F7F9
:1005A0003197AF01481B590BBC0188E392E00E94D0
:1005B0003E01EC0102C0C0E0D0E042E050E06CE15E
:1005C00071E088E392E00E943E018C0F9D1FDF9155
:1005D000CF910895CF93DF93EC01888199810097A3
:1005E00011F00E94360A198218821D821C821B8219
:1005F0001A82DF91CF910895EF92FF920F931F938C
:10060000CF93DF9322E08B3D920741F12091DF02EF
:100610003091E002FC014481558124173507E1F453
:10062000232BE1F00091DB021091DC02C081D1812B
:10063000F80181918F01882389F0082E000C990B15
:100640000E948A0B7C018991082E000C990B0E9454
:100650008A0BE816F90661F380E001C081E0DF91C2
:10066000CF911F910F91FF90EF9008952091DF029D
:100670003091E0028091D9029091DA02281739076F
:1006800031F58091DB029091DC026091D50270918E
:10069000D602009719F061157105A1F46115710575
:1006A00049F0232BB1F0FB01808190E09195819579
:1006B00091090AC0009769F0232B59F0FC01808151
:1006C00090E002C00E949B0B21E0892B19F020E0F2
:1006D00001C021E0822F08950E94850B0F931F9384
:1006E000CF93DF93EC0188819981009729F02A81CB
:1006F0003B812617370788F48B016F5F7F4F0E947D
:10070000BF0A009761F0998388831B830A832C8139
:100710003D81232B11F4FC01108281E001C080E0B7
:10072000DF91CF911F910F910895EF92FF920F9358
:100730001F93CF93DF93EC017B018A01BA010E94E2
:100740006E03811104C0CE010E94EA0207C01D831E
:100750000C83B701888199810E94A40BCE01DF919F
:10076000CF911F910F91FF90EF9008952F923F929C
:100770004F925F926F927F928F929F92AF92BF92B1
:10078000CF92DF92EF92FF920F931F93CF93DF935D
:10079000CDB7DEB72E970FB6F894DEBF0FBECDBF34
:1007A0004C016DB67EB6880F991F2DB73EB7281B3A
:1007B000390B0FB6F8943EBF0FBE2DBF8DB79EB755
:1007C00001965C017C0100E010E036E0232E312C24
:1007D000412C512C0815190594F40E947208A201AD
:1007E00091010E94FE08DC01CB010196A11DB11D03
:1007F000F701819391937F010F5F1F4FEBCF40E093
:1008000050E06EE171E085ED92E00E949503C12C0D
:10081000D12C9E012F5F3F4F7901C814D9040CF0F1
:10082000C4C0F501019111915F011093330200934F
:1008300032020130110569F461E085E00E94910007
:1008400068EE73E080E090E00E94030160E085E0E4
:100850004FC00230110569F461E086E00E9491000A
:1008600068EE73E080E090E00E94030160E086E0C3
:100870003FC00330110569F461E087E00E949100F8
:1008800068EE73E080E090E00E94030160E087E0A2
:100890002FC00430110569F461E088E00E949100E6
:1008A00068EE73E080E090E00E94030160E088E081
:1008B0001FC00530110569F461E089E00E949100D4
:1008C00068EE73E080E090E00E94030160E089E060
:1008D0000FC006301105A1F461E08AE00E9491008A
:1008E00068EE73E080E090E00E94030160E08AE03F
:1008F0000E94910068EE73E080E090E00E940301A6
:100900001A8619861C861B861E861D866091D50256
:100910007091D6026115710541F04091D902509154
:10092000DA02CE0109960E9495034AE0B701C80198
:100930000E94C908F70101900020E9F73197EE19EC
:10094000FF09D9F00D851E850E0F1F1FB801CE01BE
:1009500009960E946E03882361F029853A858D856A
:100960009E85B701820F931F0E94A40B1E870D87DF
:1009700004C0CE0109960E94EA0269857A85611554
:10098000710539F04D855E8585ED92E00E949503F5
:1009900004C085ED92E00E94EA0289859A850E9452
:1009A000360AFFEFCF1ADF0A38CF0FB6F8947EBEB3
:1009B0000FBE6DBE2E960FB6F894DEBF0FBECDBF34
:1009C000DF91CF911F910F91FF90EF90DF90CF902B
:1009D000BF90AF909F908F907F906F905F904F905F
:1009E0003F902F900895FC01118210821382128291
:1009F000158214826115710551F0FB0101900020F0
:100A0000E9F73197AF01461B570B0C9495030895F6
:100A10000F931F93CF93DF93CDB7DEB728970FB611
:100A2000F894DEBF0FBECDBF8FE191E00E94C802F7
:100A300088E392E00E94DC01892BD1F388E392E005
:100A40000E94DC01892B09F45DC06EE171E0CE01EA
:100A500001960E94F3040E948E0197FD1BC08F83B4
:100A600018860D811E810F5F1F4FB801CE010196C0
:100A70000E946E03882379F329813A818D819E81BA
:100A8000BE01695F7F4F820F931F0E94A40B1E83DC
:100A90000D83E1CF8091DB029091DC02009739F069
:100AA00069817A8161157105D9F40E94360A8981BC
:100AB0009A819093DC028093DB028B819C819093DE
:100AC000DE028093DD028D819E819093E00280930F
:100AD000DF021A82198289819A810E94360A12C025
:100AE0004091DD025091DE022D813E814217530775
:100AF000E0F20E94A40B8D819E819093E00280938E
:100B0000DF02E9CF28960FB6F894DEBF0FBECDBF47
:100B1000DF91CF911F910F9108951F920F920FB601
:100B20000F9211242F933F938F939F93AF93BF9373
:100B30008091340290913502A0913602B091370233
:100B400030912D0223E0230F2D3720F40196A11DB3
:100B5000B11D05C026E8230F0296A11DB11D2093EB
:100B60002D028093340290933502A0933602B09305
:100B7000370280912E0290912F02A0913002B09105
:100B800031020196A11DB11D80932E0290932F0278
:100B9000A0933002B0933102BF91AF919F918F919A
:100BA0003F912F910F900FBE0F901F9018951F929D
:100BB0000F920FB60F9211242F933F934F935F9391
:100BC0006F937F938F939F93AF93BF93EF93FF9315
:100BD00088E392E00E94F201FF91EF91BF91AF9103
:100BE0009F918F917F916F915F914F913F912F9145
:100BF0000F900FBE0F901F9018951F920F920FB677
:100C00000F9211242F938F939F93EF93FF93E09173
:100C10004802F09149028081E0914E02F0914F022A
:100C200082FD12C09081809151028F5F8F7320915D
:100C30005202821751F0E0915102F0E0E85CFD4F62
:100C4000958F8093510201C08081FF91EF919F9118
:100C50008F912F910F900FBE0F901F901895E8E382
:100C6000F2E01382128288EE93E0A0E0B0E0848389
:100C70009583A683B7838EE091E09183808385EC92
:100C800090E09587848784EC90E09787868780EC56
:100C900090E0918B808B81EC90E0938B828B82EC47
:100CA00090E0958B848B86EC90E0978B868B118EF1
:100CB000128E138E148E6EE171E08BED92E00E9425
:100CC000F3046EE171E085ED92E00C94F304CF93B0
:100CD000DF9300D000D000D0CDB7DEB7789484B5D4
:100CE000826084BD84B5816084BD85B5826085BD28
:100CF00085B5816085BD80916E00816080936E00B6
:100D000010928100809181008260809381008091A7
:100D10008100816080938100809180008160809358
:100D200080008091B10084608093B1008091B00018
:100D300081608093B00080917A00846080937A0013
:100D400080917A00826080937A0080917A0081603D
:100D500080937A0080917A00806880937A00109264
:100D6000C100E0914802F091490282E08083E09165
:100D70004402F09145021082E0914602F091470250
:100D80008FEC808310925002E0914C02F0914D0262
:100D900086E08083E0914A02F0914B02808180617D
:100DA0008083E0914A02F0914B02808188608083C9
:100DB000E0914A02F0914B02808180688083E0914B
:100DC0004A02F0914B0280818F7D808325E030E0E4
:100DD000F901EE55FF4F4491F901E257FF4F84911D
:100DE000882399F090E0880F991FFC01E658FF4F87
:100DF000A591B491FC01EC57FF4F859194918FB769
:100E0000F894EC91E42BEC938FBF2F5F3F4F2B3086
:100E10003105F1F680E480937C0080917A00806453
:100E200080937A0080917A0086FDFCCF60917800F3
:100E30008091790070E0782B072E000C880B990BBD
:100E4000611571058105910511F00E94C00817E038
:100E500001E088E0F82E96E0E92E25E0D22E34E07D
:100E6000C32E43E0B42E52E0A52EE0912C028E2F2B
:100E7000EE0F990BAA0BBB0B8930910508F0D8C077
:100E8000FC01EC5CFF4F0C94980987E391E00E9411
:100E9000C80282E491E00E94C8020E94080561E550
:100EA00071E0CE0101960E94F304CE0101960E94EA
:100EB000FC02982E89819A810E94360A992029F095
:100EC00000932C0283E591E0A0C010932C0286E6EB
:100ED00091E023C089E791E00E94C80283E090E09E
:100EE0000E94B6030E9408050E943603882389F0F9
:100EF000A0922C024CC08EEC91E00E94C8028BE0C4
:100F000090E00E94B6030E9408050E9436038111FA
:100F10003CC010932C028EE991E00E94C80265E06B
:100F200070E082C08AEA91E00E94C80285E090E009
:100F30000E94B6030E9408050E943603882349F3E5
:100F4000B0922C0224C086EB91E00E94C80287E098
:100F500090E00E94B6030E9408050E943603882391
:100F6000C1F2C0922C0213C082EC91E00E94C80230
:100F700089E090E00E94B6030E9408050E943603B3
:100F8000882339F2D0922C0202C0E0922C0285E82C
:100F900091E03BC08AED91E00E94C8028DE090E0B4
:100FA0000E94B6030E9408050E9436038111EDCF0E
:100FB00010932C028EE991E033C086EE91E00E94FE
:100FC000C80269E070E084E690E00E948D02F09231
:100FD0002C022EC080EF91E00E94C8020E940805FA
:100FE00061E571E0CE0101960E94F304CE01019605
:100FF0000E94FC02982E89819A810E94360A9920CB
:1010000059F000932C0287E092E00E94C80266E04B
:1010100070E088EE93E00AC010932C0289E192E020
:101020000E94C80269E070E08CE291E00E948D02AB
:101030000E9483021ACF8091D5029091D6020E941D
:10104000360A8091DB029091DC020C94360A8F9272
:101050009F92AF92BF92CF92DF92EF92FF92CF9387
:10106000DF93EC01688179818A819B81611571052B
:101070008105910521F464E279ED8BE597E02DE19E
:1010800033EF41E050E00E94FE0849015A019B0104
:10109000AC01A7EAB1E40E941D096B017C01ACEE32
:1010A000B4EFA50194010E942B09DC01CB018C0D4A
:1010B0009D1DAE1DBF1DB7FF03C00197A109B0481C
:1010C00088839983AA83BB83BC01CD019F77DF917D
:1010D000CF91FF90EF90DF90CF90BF90AF909F9017
:1010E0008F9008958F929F92AF92BF92CF92DF928E
:1010F000EF92FF92609100017091010180910201D5
:1011000090910301611571058105910521F464E257
:1011100079ED8BE597E02DE133EF41E050E00E945F
:10112000FE0849015A019B01AC01A7EAB1E40E9403
:101130001D096B017C01ACEEB4EFA50194010E9486
:101140002B09DC01CB018C0D9D1DAE1DBF1DB7FF12
:1011500003C00197A109B048809300019093010159
:10116000A0930201B0930301BC01CD019F77FF90D2
:10117000EF90DF90CF90BF90AF909F908F900895A9
:101180006093000170930101809302019093030129
:101190000895BB274A3031F4992322F4BDE290959B
:1011A00081959F4F0C94D508BB27FB015527AA2793
:1011B000880F991FAA1FA41710F0A41B83955051E4
:1011C000B9F7A05DAA3308F0A95DA193009779F75C
:1011D000B111B1931192CB010C94EE08DC01FC012A
:1011E000672F71917723E1F7329704C07C916D935B
:1011F00070836291AE17BF07C8F30895052E97FB61
:101200001EF400940E94150957FD07D00E9467093B
:1012100007FC03D04EF40C94150950954095309579
:1012200021953F4F4F4F5F4F089590958095709552
:1012300061957F4F8F4F9F4F08950E948909A59F09
:10124000900DB49F900DA49F800D911D11240895C1
:10125000B7FF0C941D090E941D09821B930B089572
:101260002F923F924F925F926F927F928F929F92B6
:10127000AF92BF92CF92DF92EF92FF920F931F93A4
:10128000CF93DF93CDB7DEB7CA1BDB0B0FB6F89455
:10129000DEBF0FBECDBF09942A88398848885F8495
:1012A0006E847D848C849B84AA84B984C884DF8006
:1012B000EE80FD800C811B81AA81B981CE0FD11DEA
:1012C0000FB6F894DEBF0FBECDBFED010895A1E2C9
:1012D0001A2EAA1BBB1BFD010DC0AA1FBB1FEE1FB0
:1012E000FF1FA217B307E407F50720F0A21BB30BFB
:1012F000E40BF50B661F771F881F991F1A9469F777
:1013000060957095809590959B01AC01BD01CF01D2
:101310000895A29FB001B39FC001A39F700D811DCE
:101320001124911DB29F700D811D1124911D0895EE
:10133000EE0FFF1F0590F491E02D09940F931F937A
:10134000CF93DF938230910510F482E090E0E0913A
:10135000E302F091E40220E030E0A0E0B0E030975A
:1013600019F1408151810281138148175907C8F052
:101370008417950769F4109731F012960C93129721
:1013800013961C9327C00093E3021093E40222C03B
:101390002115310519F04217530718F49A01BD01C0
:1013A000EF01DF01F801DBCF21153105F9F0281B32
:1013B000390B2430310580F48A819B8161157105D8
:1013C00021F0FB019383828304C09093E402809315
:1013D000E302FE01329644C0FE01E20FF31F819347
:1013E000919322503109398328833AC02091E10238
:1013F0003091E202232B41F4209106013091070144
:101400003093E2022093E102209104013091050122
:101410002115310541F42DB73EB740910801509197
:101420000901241B350BE091E102F091E202E21781
:10143000F307A0F42E1B3F0B2817390778F0AC01F7
:101440004E5F5F4F2417350748F04E0F5F1F5093D4
:10145000E2024093E1028193919302C0E0E0F0E068
:10146000CF01DF91CF911F910F910895CF93DF931B
:10147000009709F481C0FC01329713821282A09177
:10148000E302B091E402109781F420813181820F50
:10149000931F2091E1023091E2022817390751F59C
:1014A000F093E202E093E10267C0ED0120E030E05A
:1014B000CE17DF0740F44A815B819E01411551053B
:1014C000F1F0EA01F5CFD383C28340815181840FCB
:1014D000951FC817D90759F488819981840F951FE2
:1014E0000296918380838A819B81938382832115D5
:1014F000310529F4F093E402E093E3023DC0E901F1
:10150000FB83EA8349915991C40FD51FEC17FD075E
:1015100061F480819181840F951F0296E90199837E
:101520008883828193819B838A83E0E0F0E0129636
:101530008D919C911397009719F0FD01DC01F7CF75
:101540008D919C9111979D012E5F3F4F820F931FAC
:101550002091E1023091E2022817390769F43097AF
:1015600029F41092E4021092E30202C01382128264
:10157000B093E202A093E102DF91CF910895A0E041
:10158000B0E0E5ECFAE00C943409EC01009721F4AA
:10159000CB010E949E09B4C0FC01E60FF71F9C011D
:1015A00022503109E217F30708F4A8C0D9010D91C0
:1015B0001C91119706171707B0F00530110508F4B4
:1015C0009BC0C80104978617970708F495C002507E
:1015D0001109061B170B019311936D937C93CF0197
:1015E0000E94360A89C05B01A01AB10A4C01800E24
:1015F000911EA091E302B091E402612C712CE12CC8
:10160000F12C109709F446C08D919C911197A81563
:10161000B905B1F56C0142E0C40ED11CCA14DB045B
:1016200078F14C018A189B08640142E0C40ED11C79
:101630001296BC9012971396AC91B5E0CB16D104DC
:1016400040F0B282A38391828082D9016D937C9312
:1016500009C00E5F1F4F800F911FF9019183808396
:10166000EB2DFA2FE114F10431F0D7011396FC931E
:10167000EE93129741C0F093E402E093E3023CC082
:101680006816790608F43C017D0112960D90BC9114
:10169000A02DB7CF8091E1029091E20288169906C1
:1016A000E1F466167706C8F4809104019091050173
:1016B000009741F48DB79EB7409108015091090100
:1016C000841B950BE817F907C8F4F093E202E09346
:1016D000E102F901718360830FC0CB010E949E0972
:1016E0007C01009759F0A801BE010E94920BCE0127
:1016F0000E94360AC70104C0CE0102C080E090E01B
:10170000CDB7DEB7EEE00C94500981E090E0F8949C
:101710000C94AB0B9111089581548A5108F4805EAA
:10172000855A0895FB01DC0102C001900D924150E1
:101730005040D8F70895FB01DC018D91019080198C
:101740000110D9F3990B0895FB01DC0101900D9272
:101750000020E1F7089510E0C6E6D0E004C0FE01E5
:101760000E9498092196C736D107C9F7F894FFCF90
:10177000010000000000E5028000000000001402EB
:101780003E016B016102DC017A01CE010D0A002AE3
:1017900020496E7365726120737561207265737084
:1017A0006F737461202A002A20494E4943494F2013
:1017B0002A00436F6D656361723F2028732F6E2985
:1017C0000073004A6F676F20636F6D65C3A7616E1A
:1017D000646F2E2E2E004A6F676F206EC3A36F209A
:1017E000696E69636961646F002A204E6976656C71
:1017F0002031202A005061726162656E7321207071
:10180000726F78696D6F206E6976656C2E00457217
:10181000726F6F6F6F6F212121002A204E697665EC
:101820006C2032202A002A204E6976656C203320F5
:101830002A002A204E6976656C2034202A002A204E
:101840004E6976656C2035202A002A204E6976651F
:101850006C2036202A0047616D65204F7665720046
:101860006A6F676172206E6F76616D656E74653F39
:101870002028732F6E29004A6F676F20636F6D6594
:1018800063616E646F2E2E2E004A6F676F206E614B
:0C1890006F20696E69636961646F00007D
:00000001FF
